==== Event: ====
Created session
==== Event: ====
Connecting to: 127.0.0.1:9823
==== Event: ====
Sending logon request
===> Outgoing FIX Msg: ===>
8=FIX.4.4|9=65|35=A|34=1|49=FIXDEV|52=20240507-23:30:18.010|56=TEST|98=0|108=30|10=253|
<=== Incoming FIX Msg: <===
8=FIX.4.4|9=62|35=A|49=TEST|56=FIXDEV|34=43|52=20240507-23:30:18|98=0|108=30|10=113|
==== Event: ====
Received logon response
==== Event: ====
MsgSeqNum too high, expecting 1 but received 43
==== Event: ====
Sent ResendRequest FROM: 1 TO: 0
===> Outgoing FIX Msg: ===>
8=FIX.4.4|9=62|35=2|34=2|49=FIXDEV|52=20240507-23:30:18.043|56=TEST|7=1|16=0|10=084|
<=== Incoming FIX Msg: <===
8=FIX.4.4|9=50|35=0|49=TEST|56=FIXDEV|34=44|52=20240507-23:30:39|10=072|
===> Outgoing FIX Msg: ===>
8=FIX.4.4|9=53|35=0|34=3|49=FIXDEV|52=20240507-23:30:48.051|56=TEST|10=218|
<=== Incoming FIX Msg: <===
8=FIX.4.4|9=49|35=0|49=TEST|56=FIXDEV|34=1|52=20240507-23:31:09|10=023|
===> Outgoing FIX Msg: ===>
8=FIX.4.4|9=53|35=0|34=4|49=FIXDEV|52=20240507-23:31:18.069|56=TEST|10=226|
<=== Incoming FIX Msg: <===
8=FIX.4.4|9=49|35=0|49=TEST|56=FIXDEV|34=2|52=20240507-23:31:39|10=027|
===> Outgoing FIX Msg: ===>
8=FIX.4.4|9=53|35=0|34=5|49=FIXDEV|52=20240507-23:31:48.082|56=TEST|10=225|
==== Event: ====
Created session
==== Event: ====
Connecting to: 127.0.0.1:9823
==== Event: ====
Sending logon request
===> Outgoing FIX Msg: ===>
8=FIX.4.4|9=65|35=A|34=1|49=FIXDEV|52=20240510-01:30:17.015|56=TEST|98=0|108=30|10=247|
<=== Incoming FIX Msg: <===
8=FIX.4.4|9=61|35=A|49=TEST|56=FIXDEV|34=1|52=20240510-01:30:17|98=0|108=30|10=047|
==== Event: ====
Received logon response
<=== Incoming FIX Msg: <===
8=FIX.4.4|9=49|35=0|49=TEST|56=FIXDEV|34=2|52=20240510-01:30:33|10=010|
===> Outgoing FIX Msg: ===>
8=FIX.4.4|9=53|35=0|34=2|49=FIXDEV|52=20240510-01:30:47.031|56=TEST|10=204|
<=== Incoming FIX Msg: <===
8=FIX.4.4|9=49|35=0|49=TEST|56=FIXDEV|34=3|52=20240510-01:31:03|10=009|
==== Event: ====
Created session
==== Event: ====
Connecting to: 127.0.0.1:9823
==== Event: ====
Sending logon request
===> Outgoing FIX Msg: ===>
8=FIX.4.4|9=65|35=A|34=1|49=FIXDEV|52=20240511-11:07:31.006|56=TEST|98=0|108=30|10=249|
<=== Incoming FIX Msg: <===
8=FIX.4.4|9=61|35=A|49=TEST|56=FIXDEV|34=4|52=20240511-11:07:31|98=0|108=30|10=052|
==== Event: ====
Received logon response
==== Event: ====
MsgSeqNum too high, expecting 1 but received 4
==== Event: ====
Sent ResendRequest FROM: 1 TO: 0
===> Outgoing FIX Msg: ===>
8=FIX.4.4|9=62|35=2|34=2|49=FIXDEV|52=20240511-11:07:31.024|56=TEST|7=1|16=0|10=074|
<=== Incoming FIX Msg: <===
8=FIX.4.4|9=49|35=0|49=TEST|56=FIXDEV|34=5|52=20240511-11:07:46|10=023|
===> Outgoing FIX Msg: ===>
8=FIX.4.4|9=53|35=0|34=3|49=FIXDEV|52=20240511-11:08:01.027|56=TEST|10=207|
==== Event: ====
Created session
==== Event: ====
Connecting to: 127.0.0.1:9823
==== Event: ====
Failed to connect: dial tcp 127.0.0.1:9823: connectex: No connection could be made because the target machine actively refused it.
==== Event: ====
Reconnecting in 1m0s
==== Event: ====
Connecting to: 127.0.0.1:9823
==== Event: ====
Sending logon request
===> Outgoing FIX Msg: ===>
8=FIX.4.4|9=65|35=A|34=1|49=FIXDEV|52=20240511-11:14:12.020|56=TEST|98=0|108=30|10=242|
<=== Incoming FIX Msg: <===
8=FIX.4.4|9=61|35=A|49=TEST|56=FIXDEV|34=6|52=20240511-11:14:12|98=0|108=30|10=051|
==== Event: ====
Received logon response
==== Event: ====
MsgSeqNum too high, expecting 1 but received 6
==== Event: ====
Sent ResendRequest FROM: 1 TO: 0
===> Outgoing FIX Msg: ===>
8=FIX.4.4|9=62|35=2|34=2|49=FIXDEV|52=20240511-11:14:12.044|56=TEST|7=1|16=0|10=073|
<=== Incoming FIX Msg: <===
8=FIX.4.4|9=49|35=0|49=TEST|56=FIXDEV|34=7|52=20240511-11:14:17|10=021|
===> Outgoing FIX Msg: ===>
8=FIX.4.4|9=53|35=0|34=3|49=FIXDEV|52=20240511-11:14:42.050|56=TEST|10=205|
<=== Incoming FIX Msg: <===
8=FIX.4.4|9=49|35=0|49=TEST|56=FIXDEV|34=8|52=20240511-11:14:47|10=025|
===> Outgoing FIX Msg: ===>
8=FIX.4.4|9=53|35=0|34=4|49=FIXDEV|52=20240511-11:15:12.051|56=TEST|10=205|
<=== Incoming FIX Msg: <===
8=FIX.4.4|9=49|35=0|49=TEST|56=FIXDEV|34=9|52=20240511-11:15:17|10=024|
===> Outgoing FIX Msg: ===>
8=FIX.4.4|9=53|35=0|34=5|49=FIXDEV|52=20240511-11:15:42.056|56=TEST|10=214|
<=== Incoming FIX Msg: <===
8=FIX.4.4|9=50|35=0|49=TEST|56=FIXDEV|34=10|52=20240511-11:15:47|10=059|
===> Outgoing FIX Msg: ===>
8=FIX.4.4|9=53|35=0|34=6|49=FIXDEV|52=20240511-11:16:12.066|56=TEST|10=214|
<=== Incoming FIX Msg: <===
8=FIX.4.4|9=50|35=0|49=TEST|56=FIXDEV|34=11|52=20240511-11:16:17|10=058|
==== Event: ====
Created session
==== Event: ====
Connecting to: 127.0.0.1:9823
==== Event: ====
Failed to connect: dial tcp 127.0.0.1:9823: connectex: No connection could be made because the target machine actively refused it.
==== Event: ====
Reconnecting in 1m0s
==== Event: ====
Connecting to: 127.0.0.1:9823
==== Event: ====
Sending logon request
===> Outgoing FIX Msg: ===>
8=FIX.4.4|9=65|35=A|34=1|49=FIXDEV|52=20240511-11:17:33.013|56=TEST|98=0|108=30|10=250|
<=== Incoming FIX Msg: <===
8=FIX.4.4|9=62|35=A|49=TEST|56=FIXDEV|34=12|52=20240511-11:17:33|98=0|108=30|10=103|
==== Event: ====
Received logon response
==== Event: ====
MsgSeqNum too high, expecting 1 but received 12
==== Event: ====
Sent ResendRequest FROM: 1 TO: 0
===> Outgoing FIX Msg: ===>
8=FIX.4.4|9=62|35=2|34=2|49=FIXDEV|52=20240511-11:17:33.035|56=TEST|7=1|16=0|10=079|
<=== Incoming FIX Msg: <===
8=FIX.4.4|9=50|35=0|49=TEST|56=FIXDEV|34=13|52=20240511-11:17:47|10=064|
===> Outgoing FIX Msg: ===>
8=FIX.4.4|9=53|35=0|34=3|49=FIXDEV|52=20240511-11:18:03.037|56=TEST|10=211|
<=== Incoming FIX Msg: <===
8=FIX.4.4|9=50|35=0|49=TEST|56=FIXDEV|34=14|52=20240511-11:18:17|10=063|
==== Event: ====
Disconnected
==== Event: ====
Reconnecting in 1m0s
==== Event: ====
Created session
==== Event: ====
Connecting to: 127.0.0.1:9823
==== Event: ====
Failed to connect: dial tcp 127.0.0.1:9823: connectex: No connection could be made because the target machine actively refused it.
==== Event: ====
Reconnecting in 1m0s
==== Event: ====
Connecting to: 127.0.0.1:9823
==== Event: ====
Failed to connect: dial tcp 127.0.0.1:9823: connectex: No connection could be made because the target machine actively refused it.
==== Event: ====
Reconnecting in 1m0s
==== Event: ====
Connecting to: 127.0.0.1:9823
==== Event: ====
Failed to connect: dial tcp 127.0.0.1:9823: connectex: No connection could be made because the target machine actively refused it.
==== Event: ====
Reconnecting in 1m0s
==== Event: ====
Connecting to: 127.0.0.1:9823
==== Event: ====
Failed to connect: dial tcp 127.0.0.1:9823: connectex: No connection could be made because the target machine actively refused it.
==== Event: ====
Reconnecting in 1m0s
==== Event: ====
Connecting to: 127.0.0.1:9823
==== Event: ====
Failed to connect: dial tcp 127.0.0.1:9823: connectex: No connection could be made because the target machine actively refused it.
==== Event: ====
Reconnecting in 1m0s
==== Event: ====
Connecting to: 127.0.0.1:9823
==== Event: ====
Failed to connect: dial tcp 127.0.0.1:9823: connectex: No connection could be made because the target machine actively refused it.
==== Event: ====
Reconnecting in 1m0s
==== Event: ====
Connecting to: 127.0.0.1:9823
==== Event: ====
Failed to connect: dial tcp 127.0.0.1:9823: connectex: No connection could be made because the target machine actively refused it.
==== Event: ====
Reconnecting in 1m0s
==== Event: ====
Connecting to: 127.0.0.1:9823
==== Event: ====
Failed to connect: dial tcp 127.0.0.1:9823: connectex: No connection could be made because the target machine actively refused it.
==== Event: ====
Reconnecting in 1m0s
==== Event: ====
Connecting to: 127.0.0.1:9823
==== Event: ====
Failed to connect: dial tcp 127.0.0.1:9823: connectex: No connection could be made because the target machine actively refused it.
==== Event: ====
Reconnecting in 1m0s
==== Event: ====
Created session
==== Event: ====
Connecting to: 127.0.0.1:9823
==== Event: ====
Sending logon request
===> Outgoing FIX Msg: ===>
8=FIX.4.2|9=65|35=A|34=1|49=FIXDEV|52=20240808-23:25:06.002|56=TEST|98=0|108=30|10=001|
<=== Incoming FIX Msg: <===
8=FIX.4.2|9=62|35=A|49=TEST|56=FIXDEV|34=15|52=20240808-23:25:06|98=0|108=30|10=115|
==== Event: ====
Received logon response
==== Event: ====
MsgSeqNum too high, expecting 1 but received 15
==== Event: ====
Sent ResendRequest FROM: 1 TO: 0
===> Outgoing FIX Msg: ===>
8=FIX.4.2|9=62|35=2|34=2|49=FIXDEV|52=20240808-23:25:06.024|56=TEST|7=1|16=0|10=086|
<=== Incoming FIX Msg: <===
8=FIX.4.2|9=50|35=0|49=TEST|56=FIXDEV|34=16|52=20240808-23:25:35|10=073|
===> Outgoing FIX Msg: ===>
8=FIX.4.2|9=53|35=0|34=3|49=FIXDEV|52=20240808-23:25:36.037|56=TEST|10=225|
<=== Incoming FIX Msg: <===
8=FIX.4.2|9=50|35=0|49=TEST|56=FIXDEV|34=17|52=20240808-23:26:05|10=072|
===> Outgoing FIX Msg: ===>
8=FIX.4.2|9=53|35=0|34=4|49=FIXDEV|52=20240808-23:26:06.040|56=TEST|10=218|
<=== Incoming FIX Msg: <===
8=FIX.4.2|9=50|35=0|49=TEST|56=FIXDEV|34=18|52=20240808-23:26:35|10=076|
===> Outgoing FIX Msg: ===>
8=FIX.4.2|9=53|35=0|34=5|49=FIXDEV|52=20240808-23:26:36.049|56=TEST|10=231|
==== Event: ====
Disconnected
==== Event: ====
Reconnecting in 1m0s
==== Event: ====
Connecting to: 127.0.0.1:9823
==== Event: ====
Failed to connect: dial tcp 127.0.0.1:9823: connectex: No connection could be made because the target machine actively refused it.
==== Event: ====
Reconnecting in 1m0s
==== Event: ====
Created session
==== Event: ====
Connecting to: 127.0.0.1:9823
==== Event: ====
Failed to connect: dial tcp 127.0.0.1:9823: connectex: No connection could be made because the target machine actively refused it.
==== Event: ====
Reconnecting in 1m0s
==== Event: ====
Created session
==== Event: ====
Connecting to: 127.0.0.1:9823
==== Event: ====
Sending logon request
===> Outgoing FIX Msg: ===>
8=FIX.4.2|9=65|35=A|34=1|49=FIXDEV|52=20240809-00:14:16.010|56=TEST|98=0|108=30|10=251|
<=== Incoming FIX Msg: <===
8=FIX.4.2|9=62|35=A|49=TEST|56=FIXDEV|34=19|52=20240809-00:14:16|98=0|108=30|10=114|
==== Event: ====
Received logon response
==== Event: ====
MsgSeqNum too high, expecting 1 but received 19
==== Event: ====
Sent ResendRequest FROM: 1 TO: 0
===> Outgoing FIX Msg: ===>
8=FIX.4.2|9=62|35=2|34=2|49=FIXDEV|52=20240809-00:14:16.047|56=TEST|7=1|16=0|10=086|
<=== Incoming FIX Msg: <===
8=FIX.4.2|9=50|35=0|49=TEST|56=FIXDEV|34=20|52=20240809-00:14:35|10=062|
===> Outgoing FIX Msg: ===>
8=FIX.4.2|9=53|35=0|34=3|49=FIXDEV|52=20240809-00:14:46.058|56=TEST|10=223|
==== Event: ====
Created session
==== Event: ====
Connecting to: 127.0.0.1:9823
==== Event: ====
Sending logon request
===> Outgoing FIX Msg: ===>
8=FIX.4.2|9=65|35=A|34=1|49=FIXDEV|52=20240809-02:13:31.015|56=TEST|98=0|108=30|10=254|
<=== Incoming FIX Msg: <===
8=FIX.4.2|9=62|35=A|49=TEST|56=FIXDEV|34=21|52=20240809-02:13:31|98=0|108=30|10=105|
==== Event: ====
Received logon response
==== Event: ====
MsgSeqNum too high, expecting 1 but received 21
==== Event: ====
Sent ResendRequest FROM: 1 TO: 0
===> Outgoing FIX Msg: ===>
8=FIX.4.2|9=62|35=2|34=2|49=FIXDEV|52=20240809-02:13:31.055|56=TEST|7=1|16=0|10=083|
<=== Incoming FIX Msg: <===
8=FIX.4.2|9=50|35=0|49=TEST|56=FIXDEV|34=22|52=20240809-02:13:50|10=062|
==== Event: ====
read tcp 127.0.0.1:52296->127.0.0.1:9823: wsarecv: An existing connection was forcibly closed by the remote host.
==== Event: ====
Disconnected
==== Event: ====
Reconnecting in 1m0s
==== Event: ====
Connecting to: 127.0.0.1:9823
==== Event: ====
Failed to connect: dial tcp 127.0.0.1:9823: connectex: No connection could be made because the target machine actively refused it.
==== Event: ====
Reconnecting in 1m0s
==== Event: ====
Created session
==== Event: ====
Connecting to: 127.0.0.1:9823
==== Event: ====
Failed to connect: dial tcp 127.0.0.1:9823: connectex: No connection could be made because the target machine actively refused it.
==== Event: ====
Reconnecting in 1m0s
==== Event: ====
Created session
==== Event: ====
Connecting to: 127.0.0.1:9823
==== Event: ====
Sending logon request
===> Outgoing FIX Msg: ===>
8=FIX.4.2|9=65|35=A|34=1|49=FIXDEV|52=20240809-02:18:31.007|56=TEST|98=0|108=30|10=004|
<=== Incoming FIX Msg: <===
8=FIX.4.2|9=62|35=A|49=TEST|56=FIXDEV|34=23|52=20240809-02:18:31|98=0|108=30|10=112|
==== Event: ====
Received logon response
==== Event: ====
MsgSeqNum too high, expecting 1 but received 23
==== Event: ====
Sent ResendRequest FROM: 1 TO: 0
===> Outgoing FIX Msg: ===>
8=FIX.4.2|9=62|35=2|34=2|49=FIXDEV|52=20240809-02:18:31.024|56=TEST|7=1|16=0|10=084|
<=== Incoming FIX Msg: <===
8=FIX.4.2|9=50|35=0|49=TEST|56=FIXDEV|34=24|52=20240809-02:18:37|10=074|
==== Event: ====
read tcp 127.0.0.1:52340->127.0.0.1:9823: wsarecv: An existing connection was forcibly closed by the remote host.
==== Event: ====
Disconnected
==== Event: ====
Reconnecting in 1m0s
==== Event: ====
Connecting to: 127.0.0.1:9823
==== Event: ====
Failed to connect: dial tcp 127.0.0.1:9823: connectex: No connection could be made because the target machine actively refused it.
==== Event: ====
Reconnecting in 1m0s
==== Event: ====
Connecting to: 127.0.0.1:9823
==== Event: ====
Failed to connect: dial tcp 127.0.0.1:9823: connectex: No connection could be made because the target machine actively refused it.
==== Event: ====
Reconnecting in 1m0s
==== Event: ====
Connecting to: 127.0.0.1:9823
==== Event: ====
Failed to connect: dial tcp 127.0.0.1:9823: connectex: No connection could be made because the target machine actively refused it.
==== Event: ====
Reconnecting in 1m0s
==== Event: ====
Connecting to: 127.0.0.1:9823
==== Event: ====
Failed to connect: dial tcp 127.0.0.1:9823: connectex: No connection could be made because the target machine actively refused it.
==== Event: ====
Reconnecting in 1m0s
==== Event: ====
Connecting to: 127.0.0.1:9823
==== Event: ====
Failed to connect: dial tcp 127.0.0.1:9823: connectex: No connection could be made because the target machine actively refused it.
==== Event: ====
Reconnecting in 1m0s
==== Event: ====
Connecting to: 127.0.0.1:9823
==== Event: ====
Failed to connect: dial tcp 127.0.0.1:9823: connectex: No connection could be made because the target machine actively refused it.
==== Event: ====
Reconnecting in 1m0s
==== Event: ====
Connecting to: 127.0.0.1:9823
==== Event: ====
Failed to connect: dial tcp 127.0.0.1:9823: connectex: No connection could be made because the target machine actively refused it.
==== Event: ====
Reconnecting in 1m0s
==== Event: ====
Connecting to: 127.0.0.1:9823
==== Event: ====
Failed to connect: dial tcp 127.0.0.1:9823: connectex: No connection could be made because the target machine actively refused it.
==== Event: ====
Reconnecting in 1m0s
==== Event: ====
Connecting to: 127.0.0.1:9823
==== Event: ====
Failed to connect: dial tcp 127.0.0.1:9823: connectex: No connection could be made because the target machine actively refused it.
==== Event: ====
Reconnecting in 1m0s
==== Event: ====
Connecting to: 127.0.0.1:9823
==== Event: ====
Failed to connect: dial tcp 127.0.0.1:9823: connectex: No connection could be made because the target machine actively refused it.
==== Event: ====
Reconnecting in 1m0s
==== Event: ====
Connecting to: 127.0.0.1:9823
==== Event: ====
Failed to connect: dial tcp 127.0.0.1:9823: connectex: No connection could be made because the target machine actively refused it.
==== Event: ====
Reconnecting in 1m0s
==== Event: ====
Connecting to: 127.0.0.1:9823
==== Event: ====
Failed to connect: dial tcp 127.0.0.1:9823: connectex: No connection could be made because the target machine actively refused it.
==== Event: ====
Reconnecting in 1m0s
==== Event: ====
Connecting to: 127.0.0.1:9823
==== Event: ====
Failed to connect: dial tcp 127.0.0.1:9823: connectex: No connection could be made because the target machine actively refused it.
==== Event: ====
Reconnecting in 1m0s
==== Event: ====
Connecting to: 127.0.0.1:9823
==== Event: ====
Failed to connect: dial tcp 127.0.0.1:9823: connectex: No connection could be made because the target machine actively refused it.
==== Event: ====
Reconnecting in 1m0s
==== Event: ====
Connecting to: 127.0.0.1:9823
==== Event: ====
Failed to connect: dial tcp 127.0.0.1:9823: connectex: No connection could be made because the target machine actively refused it.
==== Event: ====
Reconnecting in 1m0s
==== Event: ====
Connecting to: 127.0.0.1:9823
==== Event: ====
Failed to connect: dial tcp 127.0.0.1:9823: connectex: No connection could be made because the target machine actively refused it.
==== Event: ====
Reconnecting in 1m0s
==== Event: ====
Connecting to: 127.0.0.1:9823
==== Event: ====
Failed to connect: dial tcp 127.0.0.1:9823: connectex: No connection could be made because the target machine actively refused it.
==== Event: ====
Reconnecting in 1m0s
==== Event: ====
Connecting to: 127.0.0.1:9823
==== Event: ====
Failed to connect: dial tcp 127.0.0.1:9823: connectex: No connection could be made because the target machine actively refused it.
==== Event: ====
Reconnecting in 1m0s
==== Event: ====
Created session
==== Event: ====
Connecting to: 127.0.0.1:9823
==== Event: ====
Failed to connect: dial tcp 127.0.0.1:9823: connectex: No connection could be made because the target machine actively refused it.
==== Event: ====
Reconnecting in 1m0s
==== Event: ====
Created session
==== Event: ====
Connecting to: 127.0.0.1:9823
==== Event: ====
Sending logon request
===> Outgoing FIX Msg: ===>
8=FIX.4.2|9=65|35=A|34=1|49=FIXDEV|52=20240809-02:39:29.008|56=TEST|98=0|108=30|10=015|
<=== Incoming FIX Msg: <===
8=FIX.4.2|9=62|35=A|49=TEST|56=FIXDEV|34=25|52=20240809-02:39:29|98=0|108=30|10=124|
==== Event: ====
Received logon response
==== Event: ====
MsgSeqNum too high, expecting 1 but received 25
==== Event: ====
Sent ResendRequest FROM: 1 TO: 0
===> Outgoing FIX Msg: ===>
8=FIX.4.2|9=62|35=2|34=2|49=FIXDEV|52=20240809-02:39:29.065|56=TEST|7=1|16=0|10=099|
<=== Incoming FIX Msg: <===
8=FIX.4.2|9=50|35=0|49=TEST|56=FIXDEV|34=26|52=20240809-02:39:31|10=073|
===> Outgoing FIX Msg: ===>
8=FIX.4.2|9=53|35=0|34=3|49=FIXDEV|52=20240809-02:39:59.067|56=TEST|10=236|
<=== Incoming FIX Msg: <===
8=FIX.4.2|9=50|35=0|49=TEST|56=FIXDEV|34=27|52=20240809-02:40:01|10=063|
==== Event: ====
EOF
==== Event: ====
Disconnected
==== Event: ====
Reconnecting in 1m0s
==== Event: ====
Created session
==== Event: ====
Connecting to: 127.0.0.1:9823
==== Event: ====
Failed to connect: dial tcp 127.0.0.1:9823: connectex: No connection could be made because the target machine actively refused it.
==== Event: ====
Reconnecting in 1m0s
==== Event: ====
Connecting to: 127.0.0.1:9823
==== Event: ====
Sending logon request
===> Outgoing FIX Msg: ===>
8=FIX.4.2|9=65|35=A|34=1|49=FIXDEV|52=20240814-01:30:31.024|56=TEST|98=0|108=30|10=248|
<=== Incoming FIX Msg: <===
8=FIX.4.2|9=62|35=A|49=TEST|56=FIXDEV|34=28|52=20240814-01:30:31|98=0|108=30|10=106|
==== Event: ====
Received logon response
==== Event: ====
MsgSeqNum too high, expecting 1 but received 28
==== Event: ====
Sent ResendRequest FROM: 1 TO: 0
===> Outgoing FIX Msg: ===>
8=FIX.4.2|9=62|35=2|34=2|49=FIXDEV|52=20240814-01:30:31.059|56=TEST|7=1|16=0|10=081|
<=== Incoming FIX Msg: <===
8=FIX.4.2|9=50|35=0|49=TEST|56=FIXDEV|34=29|52=20240814-01:30:41|10=063|
===> Outgoing FIX Msg: ===>
8=FIX.4.2|9=53|35=0|34=3|49=FIXDEV|52=20240814-01:31:01.062|56=TEST|10=205|
<=== Incoming FIX Msg: <===
8=FIX.4.2|9=50|35=0|49=TEST|56=FIXDEV|34=30|52=20240814-01:31:11|10=053|
===> Outgoing FIX Msg: ===>
8=FIX.4.2|9=53|35=0|34=4|49=FIXDEV|52=20240814-01:31:31.076|56=TEST|10=214|
<=== Incoming FIX Msg: <===
8=FIX.4.2|9=50|35=0|49=TEST|56=FIXDEV|34=31|52=20240814-01:31:41|10=057|
<=== Incoming FIX Msg: <===
8=FIX.4.2|9=125|35=D|49=TEST|56=FIXDEV|34=32|52=20240814-01:31:53|11=604994793|21=1|55=ERICB.ST|54=1|60=20240814-01:31:53|40=2|44=50|38=1000|10=227|
===> Outgoing FIX Msg: ===>
8=FIX.4.2|9=53|35=0|34=5|49=FIXDEV|52=20240814-01:32:01.089|56=TEST|10=217|
<=== Incoming FIX Msg: <===
8=FIX.4.2|9=50|35=0|49=TEST|56=FIXDEV|34=33|52=20240814-01:32:11|10=057|
===> Outgoing FIX Msg: ===>
8=FIX.4.2|9=53|35=0|34=6|49=FIXDEV|52=20240814-01:32:31.092|56=TEST|10=215|
<=== Incoming FIX Msg: <===
8=FIX.4.2|9=50|35=0|49=TEST|56=FIXDEV|34=34|52=20240814-01:32:41|10=061|
===> Outgoing FIX Msg: ===>
8=FIX.4.2|9=53|35=0|34=7|49=FIXDEV|52=20240814-01:33:01.105|56=TEST|10=209|
==== Event: ====
EOF
==== Event: ====
Disconnected
==== Event: ====
Reconnecting in 1m0s
==== Event: ====
Connecting to: 127.0.0.1:9823
==== Event: ====
Failed to connect: dial tcp 127.0.0.1:9823: connectex: No connection could be made because the target machine actively refused it.
==== Event: ====
Reconnecting in 1m0s
==== Event: ====
Connecting to: 127.0.0.1:9823
==== Event: ====
Failed to connect: dial tcp 127.0.0.1:9823: connectex: No connection could be made because the target machine actively refused it.
==== Event: ====
Reconnecting in 1m0s
==== Event: ====
Connecting to: 127.0.0.1:9823
==== Event: ====
Failed to connect: dial tcp 127.0.0.1:9823: connectex: No connection could be made because the target machine actively refused it.
==== Event: ====
Reconnecting in 1m0s
==== Event: ====
Connecting to: 127.0.0.1:9823
==== Event: ====
Failed to connect: dial tcp 127.0.0.1:9823: connectex: No connection could be made because the target machine actively refused it.
==== Event: ====
Reconnecting in 1m0s
==== Event: ====
Connecting to: 127.0.0.1:9823
==== Event: ====
Failed to connect: dial tcp 127.0.0.1:9823: connectex: No connection could be made because the target machine actively refused it.
==== Event: ====
Reconnecting in 1m0s
==== Event: ====
Created session
==== Event: ====
Connecting to: 127.0.0.1:9823
==== Event: ====
Failed to connect: dial tcp 127.0.0.1:9823: connectex: No connection could be made because the target machine actively refused it.
==== Event: ====
Reconnecting in 1m0s
==== Event: ====
Connecting to: 127.0.0.1:9823
==== Event: ====
Sending logon request
===> Outgoing FIX Msg: ===>
8=FIX.4.2|9=65|35=A|34=1|49=FIXDEV|52=20240814-01:44:26.016|56=TEST|98=0|108=30|10=002|
<=== Incoming FIX Msg: <===
8=FIX.4.2|9=62|35=A|49=TEST|56=FIXDEV|34=35|52=20240814-01:44:26|98=0|108=30|10=113|
==== Event: ====
Received logon response
==== Event: ====
MsgSeqNum too high, expecting 1 but received 35
==== Event: ====
Sent ResendRequest FROM: 1 TO: 0
===> Outgoing FIX Msg: ===>
8=FIX.4.2|9=62|35=2|34=2|49=FIXDEV|52=20240814-01:44:26.043|56=TEST|7=1|16=0|10=083|
<=== Incoming FIX Msg: <===
8=FIX.4.2|9=50|35=0|49=TEST|56=FIXDEV|34=36|52=20240814-01:44:41|10=066|
<=== Incoming FIX Msg: <===
8=FIX.4.2|9=121|35=D|49=TEST|56=FIXDEV|34=37|52=20240814-01:44:47|11=604994794|21=1|55=AAPL|54=1|60=20240814-01:44:47|40=2|44=50|38=1000|10=215|
===> Outgoing FIX Msg: ===>
8=FIX.4.2|9=53|35=0|34=3|49=FIXDEV|52=20240814-01:44:56.051|56=TEST|10=217|
<=== Incoming FIX Msg: <===
8=FIX.4.2|9=50|35=0|49=TEST|56=FIXDEV|34=38|52=20240814-01:45:11|10=066|
===> Outgoing FIX Msg: ===>
8=FIX.4.2|9=53|35=0|34=4|49=FIXDEV|52=20240814-01:45:26.055|56=TEST|10=220|
<=== Incoming FIX Msg: <===
8=FIX.4.2|9=50|35=0|49=TEST|56=FIXDEV|34=39|52=20240814-01:45:41|10=070|
===> Outgoing FIX Msg: ===>
8=FIX.4.2|9=53|35=0|34=5|49=FIXDEV|52=20240814-01:45:56.063|56=TEST|10=223|
<=== Incoming FIX Msg: <===
8=FIX.4.2|9=50|35=0|49=TEST|56=FIXDEV|34=40|52=20240814-01:46:11|10=060|
===> Outgoing FIX Msg: ===>
8=FIX.4.2|9=53|35=0|34=6|49=FIXDEV|52=20240814-01:46:26.071|56=TEST|10=221|
<=== Incoming FIX Msg: <===
8=FIX.4.2|9=50|35=0|49=TEST|56=FIXDEV|34=41|52=20240814-01:46:41|10=064|
===> Outgoing FIX Msg: ===>
8=FIX.4.2|9=53|35=0|34=7|49=FIXDEV|52=20240814-01:46:56.077|56=TEST|10=231|
<=== Incoming FIX Msg: <===
8=FIX.4.2|9=50|35=0|49=TEST|56=FIXDEV|34=42|52=20240814-01:47:11|10=063|
==== Event: ====
Created session
==== Event: ====
Connecting to: 127.0.0.1:9823
==== Event: ====
Failed to connect: dial tcp 127.0.0.1:9823: connectex: No connection could be made because the target machine actively refused it.
==== Event: ====
Reconnecting in 1m0s
==== Event: ====
Connecting to: 127.0.0.1:9823
==== Event: ====
Sending logon request
===> Outgoing FIX Msg: ===>
8=FIX.4.2|9=65|35=A|34=1|49=FIXDEV|52=20240814-01:48:41.017|56=TEST|98=0|108=30|10=004|
<=== Incoming FIX Msg: <===
8=FIX.4.2|9=61|35=A|49=TEST|56=FIXDEV|34=1|52=20240814-01:48:41|98=0|108=30|10=058|
==== Event: ====
Received logon response
<=== Incoming FIX Msg: <===
8=FIX.4.2|9=49|35=0|49=TEST|56=FIXDEV|34=2|52=20240814-01:48:41|10=023|
<=== Incoming FIX Msg: <===
8=FIX.4.2|9=120|35=D|49=TEST|56=FIXDEV|34=3|52=20240814-01:48:53|11=604994795|21=1|55=AAPL|54=1|60=20240814-01:48:53|40=2|44=50|38=1000|10=162|
===> Outgoing FIX Msg: ===>
8=FIX.4.2|9=53|35=0|34=2|49=FIXDEV|52=20240814-01:49:11.026|56=TEST|10=214|
<=== Incoming FIX Msg: <===
8=FIX.4.2|9=49|35=0|49=TEST|56=FIXDEV|34=4|52=20240814-01:49:11|10=023|
===> Outgoing FIX Msg: ===>
8=FIX.4.2|9=53|35=0|34=3|49=FIXDEV|52=20240814-01:49:41.030|56=TEST|10=213|
<=== Incoming FIX Msg: <===
8=FIX.4.2|9=49|35=0|49=TEST|56=FIXDEV|34=5|52=20240814-01:49:41|10=027|
==== Event: ====
Created session
==== Event: ====
Connecting to: 127.0.0.1:9823
==== Event: ====
Failed to connect: dial tcp 127.0.0.1:9823: connectex: No connection could be made because the target machine actively refused it.
==== Event: ====
Reconnecting in 1m0s
==== Event: ====
Connecting to: 127.0.0.1:9823
==== Event: ====
Sending logon request
===> Outgoing FIX Msg: ===>
8=FIX.4.2|9=65|35=A|34=1|49=FIXDEV|52=20240814-23:43:35.010|56=TEST|98=0|108=30|10=255|
<=== Incoming FIX Msg: <===
8=FIX.4.2|9=61|35=A|49=TEST|56=FIXDEV|34=1|52=20240814-23:43:35|98=0|108=30|10=060|
==== Event: ====
Received logon response
<=== Incoming FIX Msg: <===
8=FIX.4.2|9=49|35=0|49=TEST|56=FIXDEV|34=2|52=20240814-23:43:44|10=025|
<=== Incoming FIX Msg: <===
8=FIX.4.2|9=120|35=D|49=TEST|56=FIXDEV|34=3|52=20240814-23:43:51|11=467636627|21=1|55=AAPL|54=1|60=20240814-23:43:51|40=2|44=50|38=1000|10=150|
===> Outgoing FIX Msg: ===>
8=FIX.4.2|9=53|35=0|34=2|49=FIXDEV|52=20240814-23:44:05.022|56=TEST|10=212|
<=== Incoming FIX Msg: <===
8=FIX.4.2|9=49|35=0|49=TEST|56=FIXDEV|34=4|52=20240814-23:44:14|10=025|
===> Outgoing FIX Msg: ===>
8=FIX.4.2|9=53|35=0|34=3|49=FIXDEV|52=20240814-23:44:35.030|56=TEST|10=215|
==== Event: ====
EOF
==== Event: ====
Disconnected
==== Event: ====
Reconnecting in 1m0s
==== Event: ====
Created session
==== Event: ====
Connecting to: 127.0.0.1:9823
==== Event: ====
Failed to connect: dial tcp 127.0.0.1:9823: connectex: No connection could be made because the target machine actively refused it.
==== Event: ====
Reconnecting in 10s
==== Event: ====
Connecting to: 127.0.0.1:9823
==== Event: ====
Failed to connect: dial tcp 127.0.0.1:9823: connectex: No connection could be made because the target machine actively refused it.
==== Event: ====
Reconnecting in 10s
==== Event: ====
Connecting to: 127.0.0.1:9823
==== Event: ====
Sending logon request
===> Outgoing FIX Msg: ===>
8=FIX.4.2|9=65|35=A|34=1|49=FIXDEV|52=20240815-02:00:48.034|56=TEST|98=0|108=30|10=000|
<=== Incoming FIX Msg: <===
8=FIX.4.2|9=61|35=A|49=TEST|56=FIXDEV|34=1|52=20240815-02:00:48|98=0|108=30|10=055|
==== Event: ====
Received logon response
<=== Incoming FIX Msg: <===
8=FIX.4.2|9=121|35=D|49=TEST|56=FIXDEV|34=2|52=20240815-02:00:58|11=1511446302|21=1|55=AAPL|54=1|60=20240815-02:00:58|40=2|44=50|38=2000|10=175|
<=== Incoming FIX Msg: <===
8=FIX.4.2|9=49|35=0|49=TEST|56=FIXDEV|34=3|52=20240815-02:01:07|10=017|
===> Outgoing FIX Msg: ===>
8=FIX.4.2|9=53|35=0|34=2|49=FIXDEV|52=20240815-02:01:18.048|56=TEST|10=215|
<=== Incoming FIX Msg: <===
8=FIX.4.2|9=49|35=0|49=TEST|56=FIXDEV|34=4|52=20240815-02:01:37|10=021|
===> Outgoing FIX Msg: ===>
8=FIX.4.2|9=53|35=0|34=3|49=FIXDEV|52=20240815-02:01:48.061|56=TEST|10=214|
<=== Incoming FIX Msg: <===
8=FIX.4.2|9=49|35=0|49=TEST|56=FIXDEV|34=5|52=20240815-02:02:07|10=020|
===> Outgoing FIX Msg: ===>
8=FIX.4.2|9=53|35=0|34=4|49=FIXDEV|52=20240815-02:02:18.068|56=TEST|10=220|
<=== Incoming FIX Msg: <===
8=FIX.4.2|9=49|35=0|49=TEST|56=FIXDEV|34=6|52=20240815-02:02:37|10=024|
